{
  "contractName": "Voting",
  "abi": [
    {
      "inputs": [
        {
          "name": "candidateNames",
          "type": "bytes32[]"
        }
      ],
      "payable": false,
      "stateMutability": "nonpayable",
      "type": "constructor"
    },
    {
      "constant": true,
      "inputs": [
        {
          "name": "candidate",
          "type": "bytes32"
        }
      ],
      "name": "getVotingResultForCandidate",
      "outputs": [
        {
          "name": "",
          "type": "uint8"
        }
      ],
      "payable": false,
      "stateMutability": "view",
      "type": "function"
    },
    {
      "constant": false,
      "inputs": [
        {
          "name": "candidate",
          "type": "bytes32"
        }
      ],
      "name": "voteForCandidate",
      "outputs": [],
      "payable": false,
      "stateMutability": "nonpayable",
      "type": "function"
    },
    {
      "constant": true,
      "inputs": [
        {
          "name": "candidate",
          "type": "bytes32"
        }
      ],
      "name": "isValidCandidate",
      "outputs": [
        {
          "name": "",
          "type": "bool"
        }
      ],
      "payable": false,
      "stateMutability": "view",
      "type": "function"
    },
    {
      "constant": true,
      "inputs": [
        {
          "name": "voter",
          "type": "address"
        }
      ],
      "name": "isValidVoter",
      "outputs": [
        {
          "name": "",
          "type": "bool"
        }
      ],
      "payable": false,
      "stateMutability": "view",
      "type": "function"
    }
  ],
  "bytecode": "0x6060604052341561000f57600080fd5b6040516104b63803806104b6833981016040528080518201919050508060009080519060200190610041929190610048565b50506100c0565b82805482825590600052602060002090810192821561008a579160200282015b82811115610089578251829060001916905591602001919060010190610068565b5b509050610097919061009b565b5090565b6100bd91905b808211156100b95760008160009055506001016100a1565b5090565b90565b6103e7806100cf6000396000f300606060405260043610610062576000357c0100000000000000000000000000000000000000000000000000000000900463ffffffff16806365a34bd2146100675780638c1d9f30146100a8578063cc9ab267146100e7578063d25b11e01461010e575b600080fd5b341561007257600080fd5b61008c60048080356000191690602001909190505061015f565b604051808260ff1660ff16815260200191505060405180910390f35b34156100b357600080fd5b6100cd600480803560001916906020019091905050610191565b604051808215151515815260200191505060405180910390f35b34156100f257600080fd5b61010c6004808035600019169060200190919050506101f1565b005b341561011957600080fd5b610145600480803573ffffffffffffffffffffffffffffffffffffffff169060200190919050506102c6565b604051808215151515815260200191505060405180910390f35b600060026000836000191660001916815260200190815260200160002060009054906101000a900460ff169050919050565b600080600090505b6000805490508110156101e65782600019166000828154811015156101ba57fe5b9060005260206000209001546000191614156101d957600191506101eb565b8080600101915050610199565b600091505b50919050565b6101fa81610191565b151561020557600080fd5b61020e336102c6565b151561021957600080fd5b600160026000836000191660001916815260200190815260200160002060008282829054906101000a900460ff160192506101000a81548160ff021916908360ff16021790555060018054806001018281610274919061036a565b9160005260206000209001600033909190916101000a81548173ffffffffffffffffffffffffffffffffffffffff021916908373ffffffffffffffffffffffffffffffffffffffff1602179055505050565b600080600090505b60018054905081101561035f578273ffffffffffffffffffffffffffffffffffffffff1660018281548110151561030157fe5b906000526020600020900160009054906101000a900473ffffffffffffffffffffffffffffffffffffffff1673ffffffffffffffffffffffffffffffffffffffff1614156103525760009150610364565b80806001019150506102ce565b600191505b50919050565b815481835581811511610391578183600052602060002091820191016103909190610396565b5b505050565b6103b891905b808211156103b457600081600090555060010161039c565b5090565b905600a165627a7a72305820105c22d9301e7559837d14f899eb663648ee0c6d98df47bc6225136b461d43450029",
  "source": "pragma solidity ^0.4.18;\n\ncontract Voting {\n  // list all the candidates\n  bytes32[] private candidates;\n\n  // list all the voters\n  address[] private voters;\n\n  // hashmap to get the votes d\n  mapping (bytes32 => uint8) private votesReceived;\n\n  // Constructor for names of candidates standing in election\n  function Voting(bytes32[] candidateNames) public {\n    candidates = candidateNames;\n  }\n\n  function getVotingResultForCandidate(bytes32 candidate) view public returns (uint8) {\n    return votesReceived[candidate];\n  }\n\n  function voteForCandidate(bytes32 candidate) public {\n    // to check if candidate is legit\n    require(isValidCandidate(candidate));\n    require(isValidVoter(msg.sender));\n\n    votesReceived[candidate] += 1;\n    voters.push(msg.sender);\n  }\n\n  // for verifying if candidate is legit as well as the vote\n  function isValidCandidate(bytes32 candidate) view public returns (bool) {\n    for(uint i = 0; i < candidates.length; i++) {\n      if (candidates[i] == candidate) {\n        return true;\n      }\n    }\n    return false;\n  }\n\n  function isValidVoter(address voter) view public returns (bool) {\n    for(uint i = 0; i < voters.length; i++) {\n      if (voters[i] == voter) {\n        return false;\n      }\n    }\n    return true;\n  }\n}\n",
  "sourcePath": "/Users/nikhilsingh/Desktop/VotingDapp/contracts/Voting.sol",
  "compiler": {
    "name": "solc",
    "version": "0.4.21+commit.dfe3193c.Emscripten.clang"
  },
  "schemaVersion": "2.0.0",
  "updatedAt": "2018-04-13T09:16:56.629Z"
}